S010000073656E736F7243572E73726563E0
S113000079C000000C94BF0895C0000093C00000A4
S113001091C000008FC000008DC000008BC00000A4
S113002089C0000087C0000085C0000083C00000B4
S113003081C000007FC000007DC000007BC00000C4
S113004079C0000077C0000075C0000073C00000D4
S113005071C000006FC000006DC000006BC00000E4
S113006069C0000067C0000065C0000063C00000F4
S113007061C000005FC000005DC000005BC0000004
S113008059C0000057C0000055C0000053C0000014
S113009051C000004FC000004DC000004BC0000024
S11300A049C0000047C0000045C0000043C0000034
S11300B041C000003FC000003DC000003BC0000044
S11300C039C0000037C0000035C0000033C0000054
S11300D031C000002FC000002DC000002BC0000064
S11300E029C00000C902CC02A404F404240551056B
S11300F07B053F0611241FBECFEFD1E2DEBFCDBF8B
S113010000E00CBF18E0A0E0B2E0E8E7F9E100E0AD
S11301100BBF02C007900D92AA3AB107D9F728E0A5
S1130120AAEAB8E001C01D92A23BB207E1F774D677
S11301300C94BA0C65CF9091C00095FFFCCF8093CE
S1130140C6000895CF93DF93EC0102C0F4DF21963B
S113015088818111FBCFDF91CF9108951092C50062
S113016087E68093C40088E18093C10086E0809391
S1130170C2008AE692E0E6CF089524E1289FB00108
S1130180299F700D1124E7E0F1E080818160808374
S113019020E030E011C0E8E0F1E0408191E09427F4
S11301A090834FE088E992E0415080409040E1F72D
S11301B000C000002F5F3F4F2617370764F30895F0
S11301C08CE992E0BFDF8DEA92E0BCDF88EB92E03D
S11301D0B9DF8FEC92E0B6DF81E193E0B3DF8BE32C
S11301E093E0B0DF8AE693E0ADDF89E993E0AADF2C
S11301F085ED93E0A7DF2FE38DE093E0215080406D
S11302009040E1F700C0000008958091C000882369
S1130210E4F78091C6000895CF93DF93C0E0D0E067
S113022005C06FEFCE010E94A40C2196CF3F8FE052
S1130230D807B8F3DF91CF910895FC010190002015
S1130240E9F73197AF01481B590B4F5F5F4F60E1EE
S113025070E00C94950C08950F931F93CF93DF9344
S1130260CDB7DEB7A8970FB6F894DEBF0FBECDBFEB
S113027082EF93E067DF00E010E0C7DF8D3011F01C
S11302808A30C1F4E1E0F0E0EC0FFD1FE00FF11F54
S1130290108244E150E060E170E0CE0145960E9496
S11302A0800CBE016B5E7F4FCE010196B8D7892BBF
S11302B089F40AC0E1E0F0E0EC0FFD1FE00FF11F4C
S11302C080830F5F1F4FD9CF87E094E03BDF81E04D
S11302D090E005C08BE294E035DF80E090E0A896E2
S11302E00FB6F894DEBF0FBECDBFDF91CF911F9143
S11302F00F910895E2E0F1E080818068808383ECCF
S113030099E00197F1F700C0000080818F77808326
S113031083EC99E00197F1F700C00000089585B1DE
S1130320806885B983EC99E00197F1F700C000007B
S113033085B18F7785B983EC99E00197F1F700C017
S113034000000895CF93DF9385B18F7D85B981E057
S113035082B9E5DF80EC82B9E2DF85B1806285B9DC
S113036085B18F7B85B9C0E0D0E007C0FE01EE5FA8
S1130370FD4F808182B9D3DF2196CC30D105B4F30F
S1130380DF91CF910895CF93DF9385B18F7D85B9A8
S113039081E082B9C4DF80EC82B9C1DF85B18062BB
S11303A085B985B18F7B85B9C0E0D0E007C0FE0177
S11303B0E55EFD4F808182B9B2DF2196CC30D10554
S11303C0B4F3DF91CF910895CF93DF9385B18F7DFF
S11303D085B981E082B9A3DF80EC82B9A0DF85B161
S11303E0806285B985B18F7B85B9C0E0D0E007C054
S11303F0FE01E85DFD4F808182B991DF2196CC300A
S1130400D105B4F3DF91CF910895DECF08958091A3
S1130410B0089091B108059724F08AE494E092CE54
S113042008958EE594E08ECE08958091AE08909163
S1130430AF08892B79F0A7DF2FE786E998E92150E7
S113044080409040E1F700C00000DFDF1092AF0869
S11304501092AE0808950F931F93CF93DF938C01EE
S1130460E2E0F1E0808180628083C0E0D0E004C0FB
S1130470809305013FDF2196F801EC0FFD1F808179
S11304808111F6CFDF91CF911F910F9108952F9293
S11304903F924F925F926F927F928F929F92AF9210
S11304A0BF92CF92DF92EF92FF920F931F93CF935D
S11304B0DF93CDB7DEB7C35DD1090FB6F894DEBFC5
S11304C00FBECDBFC253DF4F19821882CE5CD0401D
S11304D0E12CF12C412C512CC12CD12C85B18F7DD8
S11304E085B985B18F7B85B98EE082B918DFE2E0EA
S11304F0F1E080818062808380818F7B808388E9C2
S113050094E0A9DF85B18F7D85B905E011E080EC29
S1130510F8018083EFDE86EA94E09DDF85B18F7D6C
S113052085B980E9F8018083E5DE85EB94E093DF0B
S1130530F5E0EF16F1044CF08DEB94E003DE0FB61A
S1130540F894DEBF0FBECDBFA0C3C114D10489F49B
S113055087EF94E0F7DD80DE892B39F083E195E0C5
S1130560F1DDCC24C394D12CB9CF8FE495E0EADD3E
S1130570B5CF81E795E0E6DD48DE90E0FC01F19738
S1130580E830F10508F07DC38827EE58FF4F8F4F00
S113059021C662DE6C01A2CFD5DE85E895E0D2DD0E
S11305A000E010E032DE8D3061F08A3051F0E2EB91
S11305B0F0E0EC0FFD1FE00FF11F80830F5F1F4F72
S11305C0F1CFE2EBF0E0EC0FFD1FE00FF11F108222
S11305D000E010E013C0B801660F771F600F711FB1
S11305E021E030E02C0F3D1F620F731FCE018E54AB
S11305F09F4F15D6892B41F00F5F1F4F0E151F0516
S113060054F380E090E002C081E090E0892B21F077
S11306108EE995E097DD62CFC701880F991F8E0D93
S11306209F1D4AE050E0BE016E547F4FE1E0F0E0D0
S1130630EC0FFD1F8E0F9F1F02D68BE08E9D500185
S11306408F9DB00C1124B501605B7F4F4BE050E0EF
S1130650CE018E549F4F0E94950C89EC95E072DD7B
S113066000E010E0D2DD8D3061F08A3051F0E8EC2A
S1130670F0E0EC0FFD1FE00FF11F80830F5F1F4FB1
S1130680F1CFE8ECF0E0EC0FFD1FE00FF11F10825A
S1130690CE0188539F4FA6D5C053DF4F99838883DB
S11306A0C05DD04086EE95E04DDD00E010E0ADDDAC
S11306B08D3061F08A3051F0E4ECF0E0EC0FFD1F76
S11306C0E00FF11F80830F5F1F4FF1CFE4ECF0E0E8
S11306D0EC0FFD1FE00FF11F1082CE018C539F4FD2
S11306E081D5CE52DF4F99838883C25DD04084E6A2
S11306F0CE52DF4F28813981C25DD040829F1001E4
S1130700839F300C112488ECC053DF4FE881F981BA
S1130710C05DD0408E9F40018F9F900C11249F920A
S11307208F9205E016E01F930F939E012C583F4FC4
S1130730C453DF4F39832883CC5CD0403F932F933D
S1130740F4D5B501605F7E4F4BE050E0CE018C588C
S11307509F4F0E94950C3F922F921F930F938E01EF
S1130760005F1F4F1F930F93E0D5B501605D7E4F6F
S11307704BE050E0C8010E94950C8101080D191D41
S1130780C253DF4F88819981CE5CD040800F911F86
S1130790C253DF4F99838883CE5CD04088E096E0D3
S11307A0D1DC4AE0BE0168557F4FC253DF4F8881D8
S11307B09981CE5CD04052D5CE0188559F4FC2DC82
S11307C086E597E0BFDCC053DF4F88819981C05D27
S11307D0D040CE52DF4FE881F981C25DD0408E0F08
S11307E09F1F480E591E5701FFEFAF1ABF0A87E239
S11307F096E0A8DCCE018E549F4FA4DC86E597E0FA
S1130800A1DC8BEA96E09EDCCE0188539F4F9ADCF4
S113081086E597E097DC8AEB96E094DCCE018C5376
S11308209F4F90DC86E597E08DDC86E396E08ADCDA
S11308304AE0BE0162567F4FC20110D5CE018256F6
S11308409F4F80DC86E597E07DDC87E496E07ADCE8
S11308504AE0BE016C567F4FC10100D5CE018C56D3
S11308609F4F70DC86E597E06DDC8BE596E06ADCF3
S11308704AE0BE0166577F4FC401F0D4CE018657CB
S11308809F4F60DC86E597E05DDC83E196E05ADC0F
S11308904AE0BE0160587F4FC801E0D4CE018058C1
S11308A09F4F50DC86E597E04DDC4AE0BE01605482
S11308B07F4FC053DF4F88819981C05DD040CED433
S11308C04AE0BE0164547F4FCE52DF4F8881998144
S11308D0C25DD040C3D44AE0BE0162567F4FC2011C
S11308E0BDD444E050E060E470E0CE0180549F4FFA
S11308F00E94950CB7016D5E7F4F660F771F660FE0
S1130900771F44E050E0CE0184549F4F0E94950C21
S1130910B501660F771FAA0CBB1CAA0CBB1CAA0C42
S1130920BB1C6A0D7B1D60597F4F4AE050E0CE012D
S113093082569F4FFAD722E0E20EF11C0FB6F894CC
S1130940DEBF0FBECDBFCACD8FE696E0FBDB44E031
S113095050E060E470E0CE018C569F4FD1D7CE01B9
S11309608C569F4F3FD44C0144E050E060E470E06B
S1130970CE0186579F4FC4D7CE0186579F4F32D49E
S11309808C015401A80EB91E85EA96E0DBDB4AE02F
S1130990BE0160587F4FC40161D4CE0180589F4F7F
S11309A0D1DB86E597E0CEDB84EB96E0CBDB4AE057
S11309B0BE016C587F4FC80151D4CE018C589F4F53
S11309C0C1DB86E597E0BEDB85EC96E0BBDB4AE065
S11309D0BE01605F7F4FC50141D4CE014096B2DBBA
S11309E086E597E0AFDB7ACD86ED96E0ABDB00E001
S11309F010E026C0C801880F991F800F911FE1E005
S1130A00F0E0EC0FFD1F8E0F9F1F0F5F1F4F9F9392
S1130A108F931F930F9384EF96E09F938F931F926E
S1130A2084E68F935E01F0E1AF0EB11CBF92AF92EA
S1130A3040D4C50187DB0FB6F894DEBF0FBECDBF2F
S1130A400E151F05BCF24ACDC114D10431F185E065
S1130A5097E078DB00E010E0D8DB8D3061F08A307D
S1130A6051F0E0E1F0E0EC0FFD1FE00FF11F808397
S1130A700F5F1F4FF1CFE0E1F0E0EC0FFD1FE00F3F
S1130A80F11F1082CE014096ADD3BC0184E890E002
S1130A906DD781E397E056DB21CD89E597E052DB02
S1130AA01DCDCD28C1F084E890E03AD79F938F9371
S1130AB080E897E09F938F938E01005F1F4F1F93F1
S1130AC00F9333D4C8013EDB0F900F900F900F901B
S1130AD00F900F9003C089E597E034DB81E090E04C
S1130AE09093AF088093AE08A0DC0FB6F894DEBFF5
S1130AF00FBECDBFCAC0C114D10409F4BCC08BE978
S1130B0097E020DB00E010E080DB8D3061F08A307C
S1130B1051F0E0E1F0E0EC0FFD1FE00FF11F8083E6
S1130B200F5F1F4FF1CFE0E1F0E0EC0FFD1FE00F8E
S1130B30F11F108200E010E01FC0B801660F771F9C
S1130B40600F711F81E090E08C0F9D1F680F791F6B
S1130B50CE01409664D3892B69F415DC9AE2E0E572
S1130B60FEEF20E09150E040F0402040D9F7000033
S1130B702BDC07C00F5F1F4F0E151F05F4F20FEF9C
S1130B801FEF0F3F3FEF130721F48EEB97E0DADA04
S1130B90A5CC4801880C991C880C991CC401805C64
S1130BA09F4FBED65C01C401865B9F4FB9D68A0DA8
S1130BB09B1D481A590A35C058018FEFA81AB80A64
S1130BC0B501660F771F6A0D7B1DE1E0F0E0EC0FC5
S1130BD0FD1F6E0F7F1FC801880F991F800F911F83
S1130BE08E0F9F1F25D3C501880F991F880F991F4A
S1130BF0885B9F4F95D6000F111F000F111F4801EE
S1130C00F0E48F0E911CBC01C401B0D660E070E02A
S1130C10C401ACD660E070E0C801865B9F4FA6D6E5
S1130C208501570121E0A21AB1080A151B050CF42D
S1130C30C3CF8501000F111F000F111F60E070E08A
S1130C40C801805C9F4F92D660E070E0C801865B6B
S1130C509F4F8CD6F501EE0FFF1FEA0DFB1D81E0BF
S1130C6090E08C0F9D1FE80FF91F10828FEE97E024
S1130C7069DA750133CC89E597E064DA2FCCC7DBF8
S1130C802DCC83E298E05EDA29CCCD52DF4F0FB64B
S1130C90F894DEBF0FBECDBFDF91CF911F910F91AE
S1130CA0FF90EF90DF90CF90BF90AF909F908F9088
S1130CB07F906F905F904F903F902F9008950F9387
S1130CC01F93CF93DF93C2E0D1E088818F7D888327
S1130CD011DB05E011E081E0F80180830BDB80EC9F
S1130CE0F801808307DB88818062888388818F7B19
S1130CF08883DF91CF911F910F910895CF92DF9256
S1130D00EF92FF920F931F93CF93DF93CDB7DEB78C
S1130D1064970FB6F894DEBF0FBECDBF182F092F0E
S1130D2084E890E0FDD56C012CED35E030930102B0
S1130D3020930002E12EF02EE29EC001E39E900D6E
S1130D40F29E900D11249F938F930F931F9383E52D
S1130D5098E09F938F93CE0101969F938F93E5D252
S1130D600FB6F894DEBF0FBECDBF00E010E005C0A3
S1130D7080930501BFDA0F5F1F4FE1E0F0E0EC0F55
S1130D80FD1FE00FF11F80818111F2CFCE14DF042B
S1130D9030F0B6016E197F0984E890E0E7D56496D7
S1130DA00FB6F894DEBF0FBECDBFDF91CF911F9178
S1130DB00F91FF90EF90DF90CF90089587E698E031
S1130DC04ACB0895CF93DF93489923C085B18062BD
S1130DD085B985B18F7B85B9C0E0D0E007C0FE013D
S1130DE0E75AFD4F808182B99ADA2196C131D10543
S1130DF0B4F380E882B993DAC0E0D0E007C0FE0122
S1130E00E95BFD4F808182B98ADA2196C431D1052C
S1130E10B4F3DF91CF9108958FE080930A018FEFAF
S1130E2080930101809304011AB887B980BB81B90A
S1130E3084B9E2E0F1E080818F7D808380818F7BC3
S1130E408083CEE0C093050155DA85B18F7D85B9E5
S1130E5085B18F7B85B9C2B962DA78948DB381602C
S1130E608DBB7CD9D9D989E898E0E7D9A9D90FDB1A
S1130E7060E070E084E890E079D58EEF80930B0118
S1130E808091090184FD16C081E090E09093AB0845
S1130E908093AA0814DF81E090E030DF2FE736E981
S1130EA088E9215030408040E1F700C0000007DFAE
S1130EB085DF60C08091090185FD16C084E090E063
S1130EC09093AB088093AA08FADE84E090E016DFE2
S1130ED09FE7E6E9F8E99150E040F040E1F700C00F
S1130EE00000EDDE6BDF46C08091090186FD16C06F
S1130EF087E090E09093AB088093AA08E0DE87E057
S1130F0090E0FCDE2FE736E988E92150304080404C
S1130F10E1F700C00000D3DE51DF2CC0809109014D
S1130F20882344F11092AD081092AC08C2E0D1E0DD
S1130F3088818F7D8883DED905E011E081E0F801A6
S1130F408083D8D980ECF8018083D4D988818062E9
S1130F50888388818F7B8883C0E0D0E008C0FE014D
S1130F60E35CFD4F808180930501C4D92196CA308A
S1130F70D105ACF38DEF80930B018091090184FDC1
S1130F8016C082E090E09093AB088093AA0897DEA5
S1130F9082E090E0B3DEFFE726E938E9F150204033
S1130FA03040E1F700C000008ADE08DF60C08091B5
S1130FB0090185FD16C085E090E09093AB0880930D
S1130FC0AA087DDE85E090E099DE8FE796E9E8E9FE
S1130FD081509040E040E1F700C0000070DEEEDE9A
S1130FE046C08091090186FD16C088E090E0909388
S1130FF0AB088093AA0863DE88E090E07FDEFFE719
S113100026E938E9F15020403040E1F700C0000003
S113101056DED4DE2CC080910901882344F110925D
S1131020AD081092AC08C2E0D1E088818F7D88833E
S113103061D905E011E081E0F80180835BD980EC9F
S1131040F801808357D988818062888388818F7B67
S11310508883C0E0D0E008C0FE01EB5CFD4F8081D6
S11310608093050147D92196CA30D105ACF38BEFA3
S113107080930B018091090184FD16C083E090E008
S11310809093AB088093AA081ADE83E090E036DEE2
S1131090FFE726E938E9F15020403040E1F700C08D
S11310A000000DDE8BDEE9CE8091090185FD16C0BE
S11310B086E090E09093AB088093AA0800DE86E077
S11310C090E01CDE8FE796E9E8E981509040E0402B
S11310D0E1F700C00000F3DD71DECFCE809109019D
S11310E086FD16C089E090E09093AB088093AA082F
S11310F0E6DD89E090E002DEFFE726E938E9F15019
S113110020403040E1F700C00000D9DD57DEB5CE05
S11311108091090188230CF4B0CE83E090E02DD8AF
S1131120CEDD8FE898E097D984ED90E9E7EFF4E01D
S113113081509040E040F040D9F700C000C000006A
S1131140E2E0F1E080818F7D8083C5E0D1E081E041
S11311508883D0D880E88883CDD88DE998E07BD97E
S1131160C0E0D0E004C082E090E007D821968091EE
S1131170AA089091AB08C817D907ACF37ECE1F928A
S11311800F920FB60F9211240BB60F922F933F9329
S11311904F935F936F937F938F939F93AF93BF937B
S11311A0EF93FF9398B181E0892788B90BDEFF9113
S11311B0EF91BF91AF919F918F917F916F915F91CB
S11311C04F913F912F910F900BBE0F900FBE0F9038
S11311D01F901895EE0FFF1F881F8BBF0790F69185
S11311E0E02D1994FC0188279927E8942191203255
S11311F0E9F3293010F02E30C8F32B3239F02D32B8
S113120031F4689403C034D0820F911D219120538E
S11312102A30C8F31EF4909581959F4F0895FB01E1
S1131220DC018D91019080190110D9F3990B089577
S1131230FB01DC0101900D920020E1F70895FB0110
S1131240DC014150504048F001900D920020C9F754
S113125001C01D9241505040E0F70895BB274A3029
S113126031F4992322F4BDE2909581959F4F09C0F2
S11312707AE0979F902D879F802D910D11240895DA
S1131280BB27FB015527AA27880F991FAA1FA4175C
S113129010F0A41B83955051B9F7A05DAA3308F050
S11312A0A95DA193009779F7B111B1931192CB0184
S11312B07DC20F931F93CF93DF93CDB7DEB72E97E5
S11312C00FB6F894DEBF0FBECDBF0E891F89888D7F
S11312D0998D26E02C831A83098397FF02C080E04E
S11312E090E801979E838D83AE01445E5F4F6A8DC3
S11312F07B8DCE01019647D04D815E8157FD0AC09A
S11313002F813885421753070CF49A01F801E20F34
S1131310F31F10822E960FB6F894DEBF0FBECDBF1A
S1131320DF91CF911F910F9108950F931F93CF9346
S1131330DF93CDB7DEB72E970FB6F894DEBF0FBE9E
S1131340CDBF0E891F8986E08C831A8309838FEFB2
S11313509FE79E838D83AE01465E5F4F688D798DD6
S1131360CE01019610D0EF81F885E00FF11F1082B5
S11313702E960FB6F894DEBF0FBECDBFDF91CF918E
S11313801F910F9108952F923F924F925F926F9207
S11313907F928F929F92AF92BF92CF92DF92EF9201
S11313A0FF920F931F93CF93DF93CDB7DEB72B97A5
S11313B00FB6F894DEBF0FBECDBF6C017B018A016E
S11313C0FC0117821682838181FFBFC1CE01019681
S11313D03C01F6019381F70193FD859193FF81917F
S11313E07F01882309F4ADC1853239F493FD8591D9
S11313F093FF81917F01853221F4B60190E0E6D11B
S1131400E8CF912C212C312CFFE1F315D8F08B324D
S113141079F038F4803279F08332A1F4232D2061FD
S11314201DC08D3261F0803369F4232D216016C014
S1131430832D8260382EE32DE4603E2E2AC0F32DE6
S1131440F8601DC037FC2DC020ED280F2A3040F075
S11314508E32B9F436FC75C1232D2064322E19C0A6
S113146036FE06C08AE0989E200D1124922E11C0EB
S1131470EAE02E9E200D1124222EF32DF0623F2E41
S113148008C08C3621F4832D8068382E02C088363B
S113149041F4F70193FD859193FF81917F018111BF
S11314A0B3CF982F9F7D9554933028F40C5F1F4F32
S11314B09FE399830DC0833631F0833771F0833510
S11314C009F055C020C0F801808189830E5F1F4F49
S11314D088248394912C530112C02801F2E04F0E0A
S11314E0511CF801A080B18036FE03C0692D70E064
S11314F002C06FEF7FEFC5014ED14C018201F32D85
S1131500FF773F2E15C0280122E0420E511CF8013E
S1131510A080B18036FE03C0692D70E002C06FEF79
S11315207FEFC5012DD14C01F32DF0683F2E8201D0
S113153033FC19C0822D90E088169906A0F4B601F8
S113154080E290E043D12A94F5CFF50137FC8591F0
S113155037FE81915F01B60190E038D121102A94C1
S113156021E0821A91088114910479F7E1C084364C
S113157011F0893639F5F80137FE07C060817181B1
S1131580828193810C5F1F4F08C060817181072E97
S1131590000C880B990B0E5F1F4FF32DFF763F2E27
S11315A097FF09C090958095709561957F4F8F4FF7
S11315B09F4FF0683F2E2AE030E0A30143D1882EEC
S11315C0861844C0853731F4232D2F7EB22E2AE0AD
S11315D030E025C0932D997FB92E8F36C1F018F4D1
S11315E0883579F0AEC0803719F0883721F0A9C06A
S11315F0E92FE061BE2EB4FE0DC0FB2DF460BF2EBA
S113160009C034FE0AC0292F2660B22E06C028E085
S113161030E005C020E130E002C020E132E0F80112
S1131620B7FE07C060817181828193810C5F1F4F77
S113163006C06081718180E090E00E5F1F4FA301BE
S113164001D1882E8618FB2DFF773F2E36FE0DC064
S1131650232D2E7FA22E891458F434FE0BC032FCA5
S113166009C0832D8E7EA82E05C0B82CA32C03C0E0
S1131670B82C01C0B92CA4FE0FC0FE01E80DF11D69
S11316808081803321F49A2D997EA92E09C0A2FE6F
S113169006C0B394B39404C08A2D867809F0B39439
S11316A0A3FC10C0A0FE06C0B21480F4280C922C37
S11316B09B180DC0B21458F4B60180E290E086D0B5
S11316C0B394F8CFB21418F42B1802C0982C212C20
S11316D0A4FE0FC0B60180E390E078D0A2FE16C04D
S11316E0A1FC03C088E790E002C088E590E0B60161
S11316F00CC08A2D867851F0A1FE02C08BE201C095
S113170080E2A7FC8DE2B60190E060D0891430F449
S1131710B60180E390E05AD09A94F8CF8A94F3010A
S1131720E80DF11D8081B60190E050D08110F6CF14
S1131730222009F44ECEB60180E290E047D02A94EC
S1131740F7CFF6018681978102C08FEF9FEF2B962A
S11317500FB6F894DEBF0FBECDBFDF91CF911F91BE
S11317600F91FF90EF90DF90CF90BF90AF909F903C
S11317708F907F906F905F904F903F902F9008953F
S1131780FC010590615070400110D8F78095909548
S11317908E0F9F1F0895FC0161507040019001104D
S11317A0D8F7809590958E0F9F1F0895DC01FC015A
S11317B0672F71917723E1F7329704C07C916D9381
S11317C070836291AE17BF07C8F308950F931F93F8
S11317D0CF93DF93FB01238121FD03C08FEF9FEFA4
S11317E02CC022FF16C046815781248135814217BF
S11317F0530744F4A081B1819D012F5F3F4F318392
S113180020838C93268137812F5F3F4F3783268334
S113181014C08B01EC01FB010084F185E02D1995C6
S1131820892BE1F6D80116968D919C911797019614
S113183017969C938E931697CE01DF91CF911F91AB
S11318400F910895FA01AA27283051F1203181F12E
S1131850E8946F936E7F6E5F7F4F8F4F9F4FAF4FB4
S1131860B1E03ED0B4E03CD0670F781F891F9A1FC7
S1131870A11D680F791F8A1F911DA11D6A0F711D7B
S1131880811D911DA11D20D009F468943F912AE087
S1131890269F11243019305D3193DEF6CF0108956F
S11318A0462F4770405D4193B3E00FD0C9F7F6CFA0
S11318B0462F4F70405D4A3318F0495D31FD405268
S11318C0419302D0A9F7EACFB4E0A69597958795FE
S11318D077956795BA95C9F70097610571050895DD
S11318E09B01AC010A2E0694579547953795279589
S11318F0BA95C9F7620F731F841F951FA01D089521
S1131900DC01CB01FC01F999FECF06C0F2BDE1BDBB
S1131910F89A319600B40D9241505040B8F70895AA
S1131920A8E1B0E042E050E0EDCFDC01A40FB51F28
S11319304150504040F0CB01840F951F2E9105D0AB
S113194041505040D8F70895262FF999FECF92BD03
S113195081BDF89A019700B4021639F01FBA20BD70
S11319600FB6F894FA9AF99A0FBE08950196272FA4
S10B1970ECDFEACFF894FFCF8D
S1131978DC05526567697374726174696F6E2069F6
S11319886E2070726F677265737300474154452007
S11319984F50454E494E47004741544520434C4F0C
S11319A853494E4700537563636573730043616E0F
S11319B863656C6C65640074616B65207265676946
S11319C87374726174696F6E00696E636F6D696EAA
S11319D86720746F75726973740048656C6C6F2C3A
S11319E82077656C636F6D6520746F20517565652C
S11319F86E20456C697A6162657468204E61746909
S1131A086F6E616C205061726B0D0A0053656C65D2
S1131A18637420616374696F6E3A0D0A003129207A
S1131A284C6F67696E0D0A0032292054616B65207A
S1131A38726567697374726174696F6E0D0A003335
S1131A482920486F77206D616E7920746F757269EB
S1131A587374732C2063617465676F72697A656443
S1131A68206279206167652067726F75702C206128
S1131A78726520696E20746865207061726B0D0A46
S1131A880034292057686963682076656869636C3F
S1131A98657320617265207374696C6C20696E20AB
S1131AA8746865207061726B0D0A00352920696EAF
S1131AB870757420746865206E756D626572206F28
S1131AC86620626F74746C657320696E207468652F
S1131AD8206672696467650D0A00362920636865A3
S1131AE8636B20746865206E756D626572206F661D
S1131AF820626F74746C657320696E207468652045
S1131B086672696467650D0A00372920205369677E
S1131B186E4F7574206F66207468652076697374D7
S1131B286F7273202F546F2072656D6F7665206114
S1131B38206361722066726F6D207468652070611D
S1131B48726B0D0A00382920497320746865207067
S1131B5861726B2066756C6C206F72206E6F740DE9
S1131B680A00456E74657220746865207061737329
S1131B78776F72643A20004C6F67696E20737563DF
S1131B886365737366756C2E204163636573732094
S1131B986772616E7465642E0D0A004C6F67696E16
S1131BA8206661696C65642E2041636365737320E4
S1131BB864656E6965642E0D0A0054686520706159
S1131BC8726B2069732066756C6C2E0D0A0054685C
S1131BD865207061726B206973206E6F742066755E
S1131BE86C6C2E205468657265206973207370616B
S1131BF8636520666F72206D6F726520766568690B
S1131C08636C65732E0D0A004652494447452C20DF
S1131C18454E54455200544845204E554D42455270
S1131C28204F462000424F54544C4553004D617890
S1131C38696D756D206E756D626572206F662063BF
S1131C4861727320726561636865642E20526567EA
S1131C58697374726174696F6E20697320636C6F41
S1131C687365642E0D0A00506C65617365206C6F92
S1131C7867696E20746F20636F6E74696E75652E64
S1131C880D0A004C6F67696E20737563636573731F
S1131C9866756C2E20596F752063616E206E6F77A0
S1131CA820616363657373207468652066756E6369
S1131CB874696F6E616C69746965732E0D0A004CE2
S1131CC86F67696E206661696C65642E20506C6567
S1131CD86173652074727920616761696E2E0D0ADB
S1131CE800456E74657220796F75722063686F6938
S1131CF863653A2000456E74657220746865206EC9
S1131D08756D62657220706C6174653A2000546860
S1131D186973206E756D62657220706C61746520DC
S1131D28697320616C72656164792072656769738F
S1131D3874657265642E0D0A00456E7465722074AC
S1131D486865206E756D626572206F6620616475C2
S1131D586C74733A2000456E74657220746865204B
S1131D686E756D626572206F66206368696C647253
S1131D78656E3A200025640043756D756C6174695D
S1131D887665204772616E6420546F74616C2043D9
S1131D986F73743A2024004E756D62657220506C1E
S1131DA86174653A2000546F74616C2056697369D4
S1131DB8746F72733A2000546F74616C20436869BD
S1131DC86C6420436F73743A202400546F74616CFC
S1131DD8204164756C7420436F73743A2024005452
S1131DE86F74616C206E756D626572206F66207405
S1131DF86F7572697374732C2063617465676F728D
S1131E08697A6564206279206167652067726F75F5
S1131E18703A0D0A00546F74616C204164756C74D7
S1131E28733A2000546F74616C204368696C64725F
S1131E38656E3A2000436F6D62696E656420546F65
S1131E4874616C3A200056656869636C6573207325
S1131E5874696C6C20696E20746865207061726B9B
S1131E683A0D0A0056656869636C652025643A2052
S1131E7825730D0A00456E74657220746865206EBA
S1131E88756D626572206F6620626F74746C657319
S1131E9820696E20746865206672696467653A20F3
S1131EA80046726964676520626F74746C652063A8
S1131EB86F756E742073746F72656420696E204543
S1131EC84550524F4D2E0D0A00506C6561736520C4
S1131ED86C6F6720696E20746F2061636365737328
S1131EE82074686973206F7074696F6E2E0D0A0010
S1131EF843757272656E7420426F74746C65204306
S1131F086F756E743A202025750A00456E746572E3
S1131F1820746865206E756D62657220706C6174DA
S1131F286520746F2072656D6F76653A2000436191
S1131F387220776974682074686973206E756D629D
S1131F48657220706C617465206973206E6F7420EB
S1131F58696E20746865207061726B2E0D0A0043E7
S1131F6861722072656D6F7665642066726F6D208C
S1131F78746865207061726B2E2056697369746F7A
S1131F88727320756E726567697374657265642E01
S1131F980D0A00496E76616C69642063686F696331
S1131FA8652E20506C656173652073656C65637478
S1131FB820612076616C6964206F7074696F6E2E7D
S1131FC80D0A00426F74746C65733A2025642046C8
S1131FD845453A20257500544F20434F4E54494EE9
S1131FE855452C2050524553532023206F72202AE4
S1131FF820544F2053544F50003132333435004964
S11320084E5345525420434F494E5320004449539C
S10D201850454E53494E4720000086
S9030000FC
